{
  "contractName": "Factory",
  "abi": [
    {
      "inputs": [],
      "stateMutability": "nonpayable",
      "type": "constructor"
    },
    {
      "anonymous": false,
      "inputs": [
        {
          "indexed": false,
          "internalType": "uint8",
          "name": "poolTypeNumber",
          "type": "uint8"
        },
        {
          "indexed": false,
          "internalType": "uint256",
          "name": "positionMultiplier",
          "type": "uint256"
        },
        {
          "indexed": false,
          "internalType": "uint256",
          "name": "fee",
          "type": "uint256"
        }
      ],
      "name": "NewPoolType",
      "type": "event"
    },
    {
      "anonymous": false,
      "inputs": [
        {
          "indexed": false,
          "internalType": "address",
          "name": "oldOwner",
          "type": "address"
        },
        {
          "indexed": false,
          "internalType": "address",
          "name": "newOwner",
          "type": "address"
        }
      ],
      "name": "OwnerChanged",
      "type": "event"
    },
    {
      "anonymous": false,
      "inputs": [
        {
          "indexed": false,
          "internalType": "address",
          "name": "token0",
          "type": "address"
        },
        {
          "indexed": false,
          "internalType": "address",
          "name": "token1",
          "type": "address"
        },
        {
          "indexed": false,
          "internalType": "uint8",
          "name": "poolType",
          "type": "uint8"
        },
        {
          "indexed": false,
          "internalType": "address",
          "name": "pool",
          "type": "address"
        }
      ],
      "name": "PoolCreated",
      "type": "event"
    },
    {
      "inputs": [
        {
          "internalType": "uint256",
          "name": "",
          "type": "uint256"
        }
      ],
      "name": "fee",
      "outputs": [
        {
          "internalType": "uint256",
          "name": "",
          "type": "uint256"
        }
      ],
      "stateMutability": "view",
      "type": "function"
    },
    {
      "inputs": [],
      "name": "owner",
      "outputs": [
        {
          "internalType": "address",
          "name": "",
          "type": "address"
        }
      ],
      "stateMutability": "view",
      "type": "function"
    },
    {
      "inputs": [
        {
          "internalType": "address",
          "name": "",
          "type": "address"
        },
        {
          "internalType": "address",
          "name": "",
          "type": "address"
        },
        {
          "internalType": "uint8",
          "name": "",
          "type": "uint8"
        }
      ],
      "name": "poolAddress",
      "outputs": [
        {
          "internalType": "address",
          "name": "",
          "type": "address"
        }
      ],
      "stateMutability": "view",
      "type": "function"
    },
    {
      "inputs": [],
      "name": "poolTypeCount",
      "outputs": [
        {
          "internalType": "uint8",
          "name": "",
          "type": "uint8"
        }
      ],
      "stateMutability": "view",
      "type": "function"
    },
    {
      "inputs": [
        {
          "internalType": "uint256",
          "name": "",
          "type": "uint256"
        }
      ],
      "name": "sqrtPositionMultiplier",
      "outputs": [
        {
          "internalType": "uint256",
          "name": "",
          "type": "uint256"
        }
      ],
      "stateMutability": "view",
      "type": "function"
    },
    {
      "inputs": [
        {
          "internalType": "uint256",
          "name": "_sqrtPositionMultiplier",
          "type": "uint256"
        },
        {
          "internalType": "uint256",
          "name": "_fee",
          "type": "uint256"
        }
      ],
      "name": "addPoolType",
      "outputs": [],
      "stateMutability": "nonpayable",
      "type": "function"
    },
    {
      "inputs": [
        {
          "internalType": "address",
          "name": "tokenA",
          "type": "address"
        },
        {
          "internalType": "address",
          "name": "tokenB",
          "type": "address"
        },
        {
          "internalType": "uint8",
          "name": "poolType",
          "type": "uint8"
        },
        {
          "internalType": "uint256",
          "name": "startingSqrtBottomPrice",
          "type": "uint256"
        }
      ],
      "name": "createPool",
      "outputs": [],
      "stateMutability": "nonpayable",
      "type": "function"
    },
    {
      "inputs": [
        {
          "internalType": "address",
          "name": "_owner",
          "type": "address"
        }
      ],
      "name": "setOwner",
      "outputs": [],
      "stateMutability": "nonpayable",
      "type": "function"
    }
  ],
  "bytecode": "0x60806040523480156200001157600080fd5b50336000806101000a81548173ffffffffffffffffffffffffffffffffffffffff021916908373ffffffffffffffffffffffffffffffffffffffff1602179055507fb532073b38c83145e3e5135377a08bf9aab55bc0fd7c1179cd4fb995d2a5159c6000336040516200008692919062000258565b60405180910390a16000600360006101000a81548160ff021916908360ff160217905550620000cc670df26edcecb22400670429d069189e0000620000d260201b60201c565b6200039a565b60008054906101000a900473ffffffffffffffffffffffffffffffffffffffff1673ffffffffffffffffffffffffffffffffffffffff163373ffffffffffffffffffffffffffffffffffffffff16146200012b57600080fd5b816001600360009054906101000a900460ff1660ff16815481106200015557620001546200036b565b5b9060005260206000200181905550806002600360009054906101000a900460ff1660ff16815481106200018d576200018c6200036b565b5b90600052602060002001819055507fbebf5931494185147d76949153bcdde8da0596958fec1822f1e1ecee113ff4eb600360009054906101000a900460ff168383604051620001df9392919062000285565b60405180910390a16003600081819054906101000a900460ff168092919062000208906200030d565b91906101000a81548160ff021916908360ff160217905550505050565b6200023081620002c2565b82525050565b6200024181620002f6565b82525050565b620002528162000300565b82525050565b60006040820190506200026f600083018562000225565b6200027e602083018462000225565b9392505050565b60006060820190506200029c600083018662000247565b620002ab602083018562000236565b620002ba604083018462000236565b949350505050565b6000620002cf82620002d6565b9050919050565b600073ffffffffffffffffffffffffffffffffffffffff82169050919050565b6000819050919050565b600060ff82169050919050565b60006200031a8262000300565b915060ff8214156200033157620003306200033c565b5b600182019050919050565b7f4e487b7100000000000000000000000000000000000000000000000000000000600052601160045260246000fd5b7f4e487b7100000000000000000000000000000000000000000000000000000000600052603260045260246000fd5b617b3780620003aa6000396000f3fe60806040523480156200001157600080fd5b5060043610620000945760003560e01c80639d38147311620000635780639d3814731462000131578063a36c5ed81462000151578063eb6dff571462000173578063f96d35ce14620001a95762000094565b8063135e51ce146200009957806313af403514620000b957806339b37ab014620000d95780638da5cb5b146200010f575b600080fd5b620000b76004803603810190620000b1919062000ac8565b620001df565b005b620000d76004803603810190620000d1919062000a3a565b620006cd565b005b620000f76004803603810190620000f1919062000b3a565b620007c4565b60405162000106919062000d33565b60405180910390f35b62000119620007e9565b60405162000128919062000c0d565b60405180910390f35b6200014f600480360381019062000149919062000b6c565b6200080d565b005b6200015b62000960565b6040516200016a919062000d50565b60405180910390f35b6200019160048036038101906200018b919062000a6c565b62000973565b604051620001a0919062000c0d565b60405180910390f35b620001c76004803603810190620001c1919062000b3a565b620009c2565b604051620001d6919062000d33565b60405180910390f35b60008054906101000a900473ffffffffffffffffffffffffffffffffffffffff1673ffffffffffffffffffffffffffffffffffffffff163373ffffffffffffffffffffffffffffffffffffffff161462000270576040517f08c379a0000000000000000000000000000000000000000000000000000000008152600401620002679062000d11565b60405180910390fd5b8273ffffffffffffffffffffffffffffffffffffffff168473ffffffffffffffffffffffffffffffffffffffff161415620002aa57600080fd5b6000808473ffffffffffffffffffffffffffffffffffffffff168673ffffffffffffffffffffffffffffffffffffffff1610620002e9578486620002ec565b85855b91509150600073ffffffffffffffffffffffffffffffffffffffff168273ffffffffffffffffffffffffffffffffffffffff16141580156200035b5750600073ffffffffffffffffffffffffffffffffffffffff168173ffffffffffffffffffffffffffffffffffffffff1614155b6200036557600080fd5b600073ffffffffffffffffffffffffffffffffffffffff16600460008473ffffffffffffffffffffffffffffffffffffffff1673ffffffffffffffffffffffffffffffffffffffff16815260200190815260200160002060008373ffffffffffffffffffffffffffffffffffffffff1673ffffffffffffffffffffffffffffffffffffffff16815260200190815260200160002060008660ff1660ff16815260200190815260200160002060009054906101000a900473ffffffffffffffffffffffffffffffffffffffff1673ffffffffffffffffffffffffffffffffffffffff16146200045257600080fd5b600030838360018860ff168154811062000471576200047062000e64565b5b906000526020600020015460028960ff168154811062000496576200049562000e64565b5b906000526020600020015488604051620004b090620009e7565b620004c19695949392919062000c57565b604051809103906000f080158015620004de573d6000803e3d6000fd5b50905080600460008573ffffffffffffffffffffffffffffffffffffffff1673ffffffffffffffffffffffffffffffffffffffff16815260200190815260200160002060008473ffffffffffffffffffffffffffffffffffffffff1673ffffffffffffffffffffffffffffffffffffffff16815260200190815260200160002060008760ff1660ff16815260200190815260200160002060006101000a81548173ffffffffffffffffffffffffffffffffffffffff021916908373ffffffffffffffffffffffffffffffffffffffff16021790555080600460008473ffffffffffffffffffffffffffffffffffffffff1673ffffffffffffffffffffffffffffffffffffffff16815260200190815260200160002060008573ffffffffffffffffffffffffffffffffffffffff1673ffffffffffffffffffffffffffffffffffffffff16815260200190815260200160002060008760ff1660ff16815260200190815260200160002060006101000a81548173ffffffffffffffffffffffffffffffffffffffff021916908373ffffffffffffffffffffffffffffffffffffffff1602179055507f4f2a5bad93c33c1d227b1ac4ad7fe6551aab8ad72bd9866a4e47c191ece4595783838784604051620006bc949392919062000cc4565b60405180910390a150505050505050565b60008054906101000a900473ffffffffffffffffffffffffffffffffffffffff1673ffffffffffffffffffffffffffffffffffffffff163373ffffffffffffffffffffffffffffffffffffffff16146200072657600080fd5b7fb532073b38c83145e3e5135377a08bf9aab55bc0fd7c1179cd4fb995d2a5159c60008054906101000a900473ffffffffffffffffffffffffffffffffffffffff16826040516200077992919062000c2a565b60405180910390a1806000806101000a81548173ffffffffffffffffffffffffffffffffffffffff021916908373ffffffffffffffffffffffffffffffffffffffff16021790555050565b60028181548110620007d557600080fd5b906000526020600020016000915090505481565b60008054906101000a900473ffffffffffffffffffffffffffffffffffffffff1681565b60008054906101000a900473ffffffffffffffffffffffffffffffffffffffff1673ffffffffffffffffffffffffffffffffffffffff163373ffffffffffffffffffffffffffffffffffffffff16146200086657600080fd5b816001600360009054906101000a900460ff1660ff168154811062000890576200088f62000e64565b5b9060005260206000200181905550806002600360009054906101000a900460ff1660ff1681548110620008c857620008c762000e64565b5b90600052602060002001819055507fbebf5931494185147d76949153bcdde8da0596958fec1822f1e1ecee113ff4eb600360009054906101000a900460ff1683836040516200091a9392919062000d6d565b60405180910390a16003600081819054906101000a900460ff1680929190620009439062000e06565b91906101000a81548160ff021916908360ff160217905550505050565b600360009054906101000a900460ff1681565b6004602052826000526040600020602052816000526040600020602052806000526040600020600092509250509054906101000a900473ffffffffffffffffffffffffffffffffffffffff1681565b60018181548110620009d357600080fd5b906000526020600020016000915090505481565b616bcc8062000f3683390190565b60008135905062000a068162000ee7565b92915050565b60008135905062000a1d8162000f01565b92915050565b60008135905062000a348162000f1b565b92915050565b60006020828403121562000a535762000a5262000e93565b5b600062000a6384828501620009f5565b91505092915050565b60008060006060848603121562000a885762000a8762000e93565b5b600062000a9886828701620009f5565b935050602062000aab86828701620009f5565b925050604062000abe8682870162000a23565b9150509250925092565b6000806000806080858703121562000ae55762000ae462000e93565b5b600062000af587828801620009f5565b945050602062000b0887828801620009f5565b935050604062000b1b8782880162000a23565b925050606062000b2e8782880162000a0c565b91505092959194509250565b60006020828403121562000b535762000b5262000e93565b5b600062000b638482850162000a0c565b91505092915050565b6000806040838503121562000b865762000b8562000e93565b5b600062000b968582860162000a0c565b925050602062000ba98582860162000a0c565b9150509250929050565b62000bbe8162000dbb565b82525050565b600062000bd3602f8362000daa565b915062000be08262000e98565b604082019050919050565b62000bf68162000def565b82525050565b62000c078162000df9565b82525050565b600060208201905062000c24600083018462000bb3565b92915050565b600060408201905062000c41600083018562000bb3565b62000c50602083018462000bb3565b9392505050565b600060c08201905062000c6e600083018962000bb3565b62000c7d602083018862000bb3565b62000c8c604083018762000bb3565b62000c9b606083018662000beb565b62000caa608083018562000beb565b62000cb960a083018462000beb565b979650505050505050565b600060808201905062000cdb600083018762000bb3565b62000cea602083018662000bb3565b62000cf9604083018562000bfc565b62000d08606083018462000bb3565b95945050505050565b6000602082019050818103600083015262000d2c8162000bc4565b9050919050565b600060208201905062000d4a600083018462000beb565b92915050565b600060208201905062000d67600083018462000bfc565b92915050565b600060608201905062000d84600083018662000bfc565b62000d93602083018562000beb565b62000da2604083018462000beb565b949350505050565b600082825260208201905092915050565b600062000dc88262000dcf565b9050919050565b600073ffffffffffffffffffffffffffffffffffffffff82169050919050565b6000819050919050565b600060ff82169050919050565b600062000e138262000df9565b915060ff82141562000e2a5762000e2962000e35565b5b600182019050919050565b7f4e487b7100000000000000000000000000000000000000000000000000000000600052601160045260246000fd5b7f4e487b7100000000000000000000000000000000000000000000000000000000600052603260045260246000fd5b600080fd5b7f446573697265466163746f72793a20596f7520617265206e6f7420746865206f60008201527f776e6572206f6620666163746f72790000000000000000000000000000000000602082015250565b62000ef28162000dbb565b811462000efe57600080fd5b50565b62000f0c8162000def565b811462000f1857600080fd5b50565b62000f268162000df9565b811462000f3257600080fd5b5056fe6101206040523480156200001257600080fd5b5060405162006bcc38038062006bcc833981810160405281019062000038919062000229565b60006004819055508573ffffffffffffffffffffffffffffffffffffffff1660808173ffffffffffffffffffffffffffffffffffffffff1660601b815250508473ffffffffffffffffffffffffffffffffffffffff1660a08173ffffffffffffffffffffffffffffffffffffffff1660601b815250508373ffffffffffffffffffffffffffffffffffffffff1660c08173ffffffffffffffffffffffffffffffffffffffff1660601b815250508260e0818152505081610100818152505080600f60008060020b815260200190815260200160002060020181905550670de0b6b3a764000083826200012b9190620002fd565b620001379190620002c5565b600f60008060020b8152602001908152602001600020600301819055506001600f60008060020b815260200190815260200160002060050160006101000a81548160ff0219169083151502179055506000600e60036101000a81548162ffffff021916908360020b62ffffff1602179055506000600e60066101000a81548162ffffff021916908360020b62ffffff1602179055506000600e60006101000a81548162ffffff021916908360020b62ffffff16021790555050505050505062000433565b6000815190506200020c81620003ff565b92915050565b600081519050620002238162000419565b92915050565b60008060008060008060c08789031215620002495762000248620003fa565b5b60006200025989828a01620001fb565b96505060206200026c89828a01620001fb565b95505060406200027f89828a01620001fb565b94505060606200029289828a0162000212565b9350506080620002a589828a0162000212565b92505060a0620002b889828a0162000212565b9150509295509295509295565b6000620002d28262000392565b9150620002df8362000392565b925082620002f257620002f1620003cb565b5b828204905092915050565b60006200030a8262000392565b9150620003178362000392565b9250817fffffffffffffffffffffffffffffffffffffffffffffffffffffffffffffffff04831182151516156200035357620003526200039c565b5b828202905092915050565b60006200036b8262000372565b9050919050565b600073ffffffffffffffffffffffffffffffffffffffff82169050919050565b6000819050919050565b7f4e487b7100000000000000000000000000000000000000000000000000000000600052601160045260246000fd5b7f4e487b7100000000000000000000000000000000000000000000000000000000600052601260045260246000fd5b600080fd5b6200040a816200035e565b81146200041657600080fd5b50565b620004248162000392565b81146200043057600080fd5b50565b60805160601c60a05160601c60c05160601c60e0516101005161664f6200057d60003960008181610cbe01528181610df8015281816111a7015281816112e1015281816125b801528181613a630152613ec80152600081816125dc01528181612d3a0152818161328d01528181614b9c0152614cbe01526000818161073601528181610acf01528181610fb60152818161149f01528181611ab501528181611d4801528181611e1f015281816123600152818161243701528181612637015281816127eb0152818161397801528181613d35015261419a0152600081816103c00152818161068401528181610a1d01528181610f04015281816113ed015281816119de01528181611a0a01528181611d74015281816123310152818161238c015281816127390152818161395301528181613c8301526140e801526000612613015261664f6000f3fe608060405234801561001057600080fd5b506004361061010b5760003560e01c80639dc29fac116100a2578063c45a015511610071578063c45a0155146102af578063d21220a7146102cd578063d93d321d146102eb578063e770cbb51461031c578063ee4c3e261461034d5761010b565b80639dc29fac14610239578063a001ecdd14610255578063a339a22914610273578063bb2dcb60146102915761010b565b80633c6d5c72116100de5780633c6d5c721461019b5780635b71a46e146101ba5780636352211e146101eb578063706d9f781461021b5761010b565b8063053c238d146101105780630dfe16811461012e5780630f0ed9bd1461014c578063242693d31461017c575b600080fd5b61011861037e565b604051610125919061593c565b60405180910390f35b6101366103be565b60405161014391906157c8565b60405180910390f35b61016660048036038101906101619190615384565b6103e2565b6040516101739190615b3b565b60405180910390f35b61018461049a565b604051610192929190615b56565b60405180910390f35b6101a36104ab565b6040516101b1929190615b56565b60405180910390f35b6101d460048036038101906101cf91906153b1565b6104bc565b6040516101e2929190615972565b60405180910390f35b61020560048036038101906102009190615505565b611683565b60405161021291906157c8565b60405180910390f35b610223611734565b6040516102309190615b3b565b60405180910390f35b610253600480360381019061024e919061546b565b61173e565b005b61025d6125b6565b60405161026a9190615b3b565b60405180910390f35b61027b6125da565b6040516102889190615b3b565b60405180910390f35b6102996125fe565b6040516102a69190615921565b60405180910390f35b6102b7612611565b6040516102c491906157c8565b60405180910390f35b6102d5612635565b6040516102e291906157c8565b60405180910390f35b610305600480360381019061030091906154d8565b612659565b604051610313929190615b56565b60405180910390f35b61033660048036038101906103319190615404565b61269f565b604051610344929190615b56565b60405180910390f35b610367600480360381019061036291906154d8565b6137f8565b604051610375929190615b56565b60405180910390f35b6040518060400160405280601981526020017f7472616e7366657228616464726573732c75696e7432353629000000000000008152508051906020012081565b7f000000000000000000000000000000000000000000000000000000000000000081565b60008073ffffffffffffffffffffffffffffffffffffffff168273ffffffffffffffffffffffffffffffffffffffff161415610453576040517f08c379a000000000000000000000000000000000000000000000000000000000815260040161044a906159fb565b60405180910390fd5b600160008373ffffffffffffffffffffffffffffffffffffffff1673ffffffffffffffffffffffffffffffffffffffff168152602001908152602001600020549050919050565b600080600754915060085490509091565b6000806009549150600a5490509091565b6000806000604051806101a001604052808773ffffffffffffffffffffffffffffffffffffffff1681526020018615158152602001858152602001600081526020016000815260200160008152602001600081526020016000815260200160008152602001600081526020016000815260200160008152602001600081525090506000806105486104ab565b91509150600080600e60009054906101000a900460020b905084602001518015610576575060008560400151125b80156105915750600854856040015161058e90616182565b11155b156108ef5784604001516105a490616182565b85610100018181525050600f60008260020b60020b8152602001908152602001600020600101548560e00181815250505b8460e001518561010001511115610663576105fb81866000015160018860e0015161383e565b826106069190615c1d565b91508460e00151856101000181815161061f9190615fc5565b91508181525050600e60009054906101000a900460020b9050600f60008260020b60020b8152602001908152602001600020600101548560e00181815250506105d5565b610675818b600188610100015161383e565b826106809190615c1d565b91507f000000000000000000000000000000000000000000000000000000000000000073ffffffffffffffffffffffffffffffffffffffff166370a08231306040518263ffffffff1660e01b81526004016106db91906157c8565b60206040518083038186803b1580156106f357600080fd5b505afa158015610707573d6000803e3d6000fd5b505050506040513d601f19601f8201168201806040525081019061072b9190615532565b8560a00181815250507f000000000000000000000000000000000000000000000000000000000000000073ffffffffffffffffffffffffffffffffffffffff166370a08231306040518263ffffffff1660e01b815260040161078d91906157c8565b60206040518083038186803b1580156107a557600080fd5b505afa1580156107b9573d6000803e3d6000fd5b505050506040513d601f19601f820116820180604052508101906107dd9190615532565b8560c001818152505081846107f29190615c1d565b8560a00151101580156108215750846040015161080e90616182565b836108199190615fc5565b8560c0015110155b610860576040517f08c379a0000000000000000000000000000000000000000000000000000000008152600401610857906159db565b60405180910390fd5b838560a001516108709190615f31565b856060018181525050828560c001516108899190615f31565b8560800181815250506108a48560a001518660c0015161434e565b7fb50ea884077a7ceac838b0a600ad305e11e119d0d246fde124e9204ac0948446336001876040015188600001516040516108e294939291906157e3565b60405180910390a1611652565b600015158560200151151514801561090b575060008560400151125b80156109265750600954856040015161092390616182565b11155b15610c8857846040015161093990616182565b85610100018181525050600f60008260020b60020b8152602001908152602001600020600001548560e00181815250505b8460e0015185610100015111156109f85761099081866000015160008860e0015161383e565b8261099b9190615c1d565b91508460e0015185610100018181516109b49190615fc5565b91508181525050600e60009054906101000a900460020b9050600f60008260020b60020b8152602001908152602001600020600001548560e001818152505061096a565b610a0e818660000151600088610100015161383e565b82610a199190615c1d565b91507f000000000000000000000000000000000000000000000000000000000000000073ffffffffffffffffffffffffffffffffffffffff166370a08231306040518263ffffffff1660e01b8152600401610a7491906157c8565b60206040518083038186803b158015610a8c57600080fd5b505afa158015610aa0573d6000803e3d6000fd5b505050506040513d601f19601f82011682018060405250810190610ac49190615532565b8560a00181815250507f000000000000000000000000000000000000000000000000000000000000000073ffffffffffffffffffffffffffffffffffffffff166370a08231306040518263ffffffff1660e01b8152600401610b2691906157c8565b60206040518083038186803b158015610b3e57600080fd5b505afa158015610b52573d6000803e3d6000fd5b505050506040513d601f19601f82011682018060405250810190610b769190615532565b8560c00181815250508183610b8b9190615c1d565b8560c0015110158015610bba57508460400151610ba790616182565b84610bb29190615fc5565b8560a0015110155b610bf9576040517f08c379a0000000000000000000000000000000000000000000000000000000008152600401610bf0906159db565b60405180910390fd5b838560a00151610c099190615f31565b856060018181525050828560c00151610c229190615f31565b856080018181525050610c3d8560a001518660c0015161434e565b7fb50ea884077a7ceac838b0a600ad305e11e119d0d246fde124e9204ac094844633600087604001518860000151604051610c7b94939291906157e3565b60405180910390a1611651565b84602001518015610c9d575060008560400151135b1561116a578460400151856101000181815250506000670de0b6b3a76400007f0000000000000000000000000000000000000000000000000000000000000000876101000151610ced9190615e60565b610cf79190615c73565b9050610d0282612659565b8761012001886101400182815250828152505050610d1f826137f8565b87610160018861018001828152508281525050506000610d558761012001518861014001518961016001518a6101800151614367565b9050600080610d8e60018a61012001518b61014001518c61016001518d6101800151898f6101000151610d889190615fc5565b8961446f565b90505b8861014001518110610eca57610db3858a6000015160018c610140015161383e565b8961010001818151610dc59190615fc5565b915081815250508480610dd79061610d565b95505088610140015182610deb9190615c1d565b9150670de0b6b3a76400007f00000000000000000000000000000000000000000000000000000000000000008a6101000151610e279190615e60565b610e319190615c73565b9350610e3c85612659565b8a610120018b6101400182815250828152505050610e59856137f8565b8a610160018b6101800182815250828152505050610e8d8961012001518a61014001518b61016001518c6101800151614367565b9250610ec360018a61012001518b61014001518c61016001518d6101800151898f6101000151610ebd9190615fc5565b8961446f565b9050610d91565b610edb858a6000015160018461383e565b8961010001818151610eed9190615fc5565b915081815250508082610f009190615c1d565b91507f000000000000000000000000000000000000000000000000000000000000000073ffffffffffffffffffffffffffffffffffffffff166370a08231306040518263ffffffff1660e01b8152600401610f5b91906157c8565b60206040518083038186803b158015610f7357600080fd5b505afa158015610f87573d6000803e3d6000fd5b505050506040513d601f19601f82011682018060405250810190610fab9190615532565b8960a00181815250507f000000000000000000000000000000000000000000000000000000000000000073ffffffffffffffffffffffffffffffffffffffff166370a08231306040518263ffffffff1660e01b815260040161100d91906157c8565b60206040518083038186803b15801561102557600080fd5b505afa158015611039573d6000803e3d6000fd5b505050506040513d601f19601f8201168201806040525081019061105d9190615532565b8960c00181815250508860400151886110769190615c1d565b8960a0015110158015611098575081876110909190615fc5565b8960c0015110155b6110d7576040517f08c379a00000000000000000000000000000000000000000000000000000000081526004016110ce906159db565b60405180910390fd5b878960a001516110e79190615f31565b896060018181525050868960c001516111009190615f31565b89608001818152505061111b8960a001518a60c0015161434e565b7fb50ea884077a7ceac838b0a600ad305e11e119d0d246fde124e9204ac09484463360018b604001518c6000015160405161115994939291906157e3565b60405180910390a150505050611650565b6000151585602001511515148015611186575060008560400151135b1561164f578460400151856101000181815250506000670de0b6b3a76400007f00000000000000000000000000000000000000000000000000000000000000008761010001516111d69190615e60565b6111e09190615c73565b90506111eb82612659565b8761012001886101400182815250828152505050611208826137f8565b8761016001886101800182815250828152505050600061123e8761012001518861014001518961016001518a6101800151614367565b905060008061127760008a61012001518b61014001518c61016001518d6101800151898f61010001516112719190615fc5565b8961446f565b90505b88610120015181106113b35761129c858a6000015160008c610120015161383e565b89610100018181516112ae9190615fc5565b9150818152505084806112c09061610d565b955050886101200151826112d49190615c1d565b9150670de0b6b3a76400007f00000000000000000000000000000000000000000000000000000000000000008a61010001516113109190615e60565b61131a9190615c73565b935061132585612659565b8a610120018b6101400182815250828152505050611342856137f8565b8a610160018b61018001828152508281525050506113768961012001518a61014001518b61016001518c6101800151614367565b92506113ac60008a61012001518b61014001518c61016001518d6101800151898f61010001516113a69190615fc5565b8961446f565b905061127a565b6113c4858a6000015160008461383e565b89610100018181516113d69190615fc5565b9150818152505080826113e99190615c1d565b91507f000000000000000000000000000000000000000000000000000000000000000073ffffffffffffffffffffffffffffffffffffffff166370a08231306040518263ffffffff1660e01b815260040161144491906157c8565b60206040518083038186803b15801561145c57600080fd5b505afa158015611470573d6000803e3d6000fd5b505050506040513d601f19601f820116820180604052508101906114949190615532565b8960a00181815250507f000000000000000000000000000000000000000000000000000000000000000073ffffffffffffffffffffffffffffffffffffffff166370a08231306040518263ffffffff1660e01b81526004016114f691906157c8565b60206040518083038186803b15801561150e57600080fd5b505afa158015611522573d6000803e3d6000fd5b505050506040513d601f19601f820116820180604052508101906115469190615532565b8960c0018181525050818861155b9190615fc5565b8960a001511015801561158157508860400151876115799190615c1d565b8960c0015110155b6115c0576040517f08c379a00000000000000000000000000000000000000000000000000000000081526004016115b7906159db565b60405180910390fd5b878960a001516115d09190615f31565b896060018181525050868960c001516115e99190615f31565b8960800181815250506116048960a001518a60c0015161434e565b7fb50ea884077a7ceac838b0a600ad305e11e119d0d246fde124e9204ac09484463360008b604001518c6000015160405161164294939291906157e3565b60405180910390a1505050505b5b5b5b60008560600151905060008660800151905061166c6151aa565b965081819850985050505050505050935093915050565b60008060008084815260200190815260200160002060009054906101000a900473ffffffffffffffffffffffffffffffffffffffff169050600073ffffffffffffffffffffffffffffffffffffffff168173ffffffffffffffffffffffffffffffffffffffff16141561172b576040517f08c379a000000000000000000000000000000000000000000000000000000000815260040161172290615a1b565b60405180910390fd5b80915050919050565b6000600654905090565b611747816145b9565b611786576040517f08c379a000000000000000000000000000000000000000000000000000000000815260040161177d90615abb565b60405180910390fd5b600061179182611683565b90508073ffffffffffffffffffffffffffffffffffffffff163273ffffffffffffffffffffffffffffffffffffffff1614611801576040517f08c379a00000000000000000000000000000000000000000000000000000000081526004016117f890615adb565b60405180910390fd5b61180a82614624565b6000806118156104ab565b915091506000600e60009054906101000a900460020b90506000600260008781526020019081526020016000206040518060600160405290816000820160009054906101000a900460020b60020b60020b81526020016000820160039054906101000a900460020b60020b60020b815260200160018201548152505090506000816020015190506000826000015190506118ad61522a565b6000808660020b8460020b1315611c1a5760008490505b8560020b8160020b136119d857600360008d815260200190815260200160002060008260020b60020b815260200190815260200160002054846040018181525050600f60008260020b60020b815260200190815260200160002060040154600f60008360020b60020b815260200190815260200160002060000154856040015161194e9190615e60565b6119589190615c73565b8460600181815250508360600151846000018181516119779190615c1d565b9150818152505061198e81856060015160006146c0565b8360400151600f60008360020b60020b815260200190815260200160002060040160008282546119be9190615fc5565b9250508190555080806119d09061610d565b9150506118c4565b50611a087f00000000000000000000000000000000000000000000000000000000000000008d856000015161475d565b7f000000000000000000000000000000000000000000000000000000000000000073ffffffffffffffffffffffffffffffffffffffff166370a08231306040518263ffffffff1660e01b8152600401611a6191906157c8565b60206040518083038186803b158015611a7957600080fd5b505afa158015611a8d573d6000803e3d6000fd5b505050506040513d601f19601f82011682018060405250810190611ab19190615532565b91507f000000000000000000000000000000000000000000000000000000000000000073ffffffffffffffffffffffffffffffffffffffff166370a08231306040518263ffffffff1660e01b8152600401611b0c91906157c8565b60206040518083038186803b158015611b2457600080fd5b505afa158015611b38573d6000803e3d6000fd5b505050506040513d601f19601f82011682018060405250810190611b5c9190615532565b9050826000015189611b6e9190615fc5565b8210158015611b7d5750878110155b611bbc576040517f08c379a0000000000000000000000000000000000000000000000000000000008152600401611bb390615a9b565b60405180910390fd5b7f07298ab0fbb43f12cca308fbffbb71b60bcc9e730ec86c61db6faa9cf823539b8a8c86888a6040015188600001518960200151604051611c0397969594939291906158b2565b60405180910390a1611c15828261434e565b6125a8565b8660020b8560020b1315611f845760008590505b8460020b8160020b12611d4257600360008d815260200190815260200160002060008260020b60020b815260200190815260200160002054846040018181525050600f60008260020b60020b815260200190815260200160002060040154600f60008360020b60020b8152602001908152602001600020600101548560400151611cb89190615e60565b611cc29190615c73565b846080018181525050836080015184602001818151611ce19190615c1d565b91508181525050611cf881600086602001516146c0565b8360400151600f60008360020b60020b81526020019081526020016000206004016000828254611d289190615fc5565b925050819055508080611d3a906160c4565b915050611c2e565b50611d727f00000000000000000000000000000000000000000000000000000000000000008d856020015161475d565b7f000000000000000000000000000000000000000000000000000000000000000073ffffffffffffffffffffffffffffffffffffffff166370a08231306040518263ffffffff1660e01b8152600401611dcb91906157c8565b60206040518083038186803b158015611de357600080fd5b505afa158015611df7573d6000803e3d6000fd5b505050506040513d601f19601f82011682018060405250810190611e1b9190615532565b91507f000000000000000000000000000000000000000000000000000000000000000073ffffffffffffffffffffffffffffffffffffffff166370a08231306040518263ffffffff1660e01b8152600401611e7691906157c8565b60206040518083038186803b158015611e8e57600080fd5b505afa158015611ea2573d6000803e3d6000fd5b505050506040513d601f19601f82011682018060405250810190611ec69190615532565b9050888210158015611ee75750826020015188611ee39190615fc5565b8110155b611f26576040517f08c379a0000000000000000000000000000000000000000000000000000000008152600401611f1d90615a9b565b60405180910390fd5b7f07298ab0fbb43f12cca308fbffbb71b60bcc9e730ec86c61db6faa9cf823539b8a8c86888a6040015188600001518960200151604051611f6d97969594939291906158b2565b60405180910390a1611f7f828261434e565b6125a7565b60008490505b8760020b8160020b121561209f57600360008d815260200190815260200160002060008260020b60020b815260200190815260200160002054846040018181525050600f60008260020b60020b815260200190815260200160002060040154600f60008360020b60020b81526020019081526020016000206000015485604001516120159190615e60565b61201f9190615c73565b84606001818152505083606001518460000181815161203e9190615c1d565b9150818152505061205581856060015160006146c0565b8360400151600f60008360020b60020b815260200190815260200160002060040160008282546120859190615fc5565b9250508190555080806120979061610d565b915050611f8a565b5060008590505b8760020b8160020b13156121bb57600360008d815260200190815260200160002060008260020b60020b815260200190815260200160002054846040018181525050600f60008260020b60020b815260200190815260200160002060040154600f60008360020b60020b81526020019081526020016000206001015485604001516121319190615e60565b61213b9190615c73565b84608001818152505083608001518460200181815161215a9190615c1d565b9150818152505061217181600086602001516146c0565b8360400151600f60008360020b60020b815260200190815260200160002060040160008282546121a19190615fc5565b9250508190555080806121b3906160c4565b9150506120a6565b50600360008c815260200190815260200160002060008860020b60020b815260200190815260200160002054836040018181525050600f60008860020b60020b815260200190815260200160002060040154600f60008960020b60020b81526020019081526020016000206000015484604001516122399190615e60565b6122439190615c73565b836060018181525050600f60008860020b60020b815260200190815260200160002060040154600f60008960020b60020b81526020019081526020016000206001015484604001516122959190615e60565b61229f9190615c73565b8360800181815250508260600151836000018181516122be9190615c1d565b915081815250508260800151836020018181516122db9190615c1d565b915081815250506122f587846060015185608001516146c0565b8260400151600f60008960020b60020b815260200190815260200160002060040160008282546123259190615fc5565b9250508190555061235b7f00000000000000000000000000000000000000000000000000000000000000008d856000015161475d565b61238a7f00000000000000000000000000000000000000000000000000000000000000008d856020015161475d565b7f000000000000000000000000000000000000000000000000000000000000000073ffffffffffffffffffffffffffffffffffffffff166370a08231306040518263ffffffff1660e01b81526004016123e391906157c8565b60206040518083038186803b1580156123fb57600080fd5b505afa15801561240f573d6000803e3d6000fd5b505050506040513d601f19601f820116820180604052508101906124339190615532565b91507f000000000000000000000000000000000000000000000000000000000000000073ffffffffffffffffffffffffffffffffffffffff166370a08231306040518263ffffffff1660e01b815260040161248e91906157c8565b60206040518083038186803b1580156124a657600080fd5b505afa1580156124ba573d6000803e3d6000fd5b505050506040513d601f19601f820116820180604052508101906124de9190615532565b90508260000151896124f09190615fc5565b821015801561250e575082602001518861250a9190615fc5565b8110155b61254d576040517f08c379a000000000000000000000000000000000000000000000000000000000815260040161254490615a9b565b60405180910390fd5b7f07298ab0fbb43f12cca308fbffbb71b60bcc9e730ec86c61db6faa9cf823539b8a8c86888a604001518860000151896020015160405161259497969594939291906158b2565b60405180910390a16125a6828261434e565b5b5b505050505050505050505050565b7f000000000000000000000000000000000000000000000000000000000000000081565b7f000000000000000000000000000000000000000000000000000000000000000081565b600560009054906101000a900460ff1681565b7f000000000000000000000000000000000000000000000000000000000000000081565b7f000000000000000000000000000000000000000000000000000000000000000081565b600080600f60008460020b60020b8152602001908152602001600020600001549150600f60008460020b60020b8152602001908152602001600020600101549050915091565b6000808460020b8460020b12156126b557600080fd5b60006040518061016001604052808873ffffffffffffffffffffffffffffffffffffffff1681526020018760020b81526020018660020b81526020018581526020016000815260200160008152602001600081526020016000815260200160008152602001600081526020016000815250905060008061273361049a565b915091507f000000000000000000000000000000000000000000000000000000000000000073ffffffffffffffffffffffffffffffffffffffff166370a08231306040518263ffffffff1660e01b815260040161279091906157c8565b60206040518083038186803b1580156127a857600080fd5b505afa1580156127bc573d6000803e3d6000fd5b505050506040513d601f19601f820116820180604052508101906127e09190615532565b8360800181815250507f000000000000000000000000000000000000000000000000000000000000000073ffffffffffffffffffffffffffffffffffffffff166370a08231306040518263ffffffff1660e01b815260040161284291906157c8565b60206040518083038186803b15801561285a57600080fd5b505afa15801561286e573d6000803e3d6000fd5b505050506040513d601f19601f820116820180604052508101906128929190615532565b8360a00181815250506128a883600001516148e7565b8360c00181815250506000600e60009054906101000a900460020b90508360200151600260008660c00151815260200190815260200160002060000160006101000a81548162ffffff021916908360020b62ffffff1602179055508360400151600260008660c00151815260200190815260200160002060000160036101000a81548162ffffff021916908360020b62ffffff1602179055508360600151600260008660c001518152602001908152602001600020600101819055508060020b846020015160020b1315612c7657600060018560200151866040015161298e9190615eba565b60020b61299b9190615c1d565b90508460600151816129ad9190615e60565b9650600095506000856020015190505b856040015160020b8160020b13612b995760001515600f60008360020b60020b815260200190815260200160002060050160009054906101000a900460ff1615151415612a0e57612a0d81614a2f565b5b612a1783612659565b8760e001886101000182815250828152505050612a33836137f8565b87610120018861014001828152508281525050506000600f60008360020b60020b81526020019081526020016000206004015414612add578560e001518660600151600f60008460020b60020b815260200190815260200160002060040154612a9c9190615e60565b612aa69190615c73565b600360008860c00151815260200190815260200160002060008360020b60020b815260200190815260200160002081905550612b15565b8560600151600360008860c00151815260200190815260200160002060008360020b60020b8152602001908152602001600020819055505b600360008760c00151815260200190815260200160002060008260020b60020b815260200190815260200160002054600f60008360020b60020b81526020019081526020016000206004016000828254612b6f9190615c1d565b92505081905550612b868187606001516000614dc5565b8080612b919061610d565b9150506129bd565b508684612ba69190615c1d565b856080015110158015612bc857508583612bc09190615c1d565b8560a0015110155b612c07576040517f08c379a0000000000000000000000000000000000000000000000000000000008152600401612bfe90615a9b565b60405180910390fd5b7f25bb3662de914b1d79554ee15970aec0a6759bfd7e6b72f55e6d04e70bc3d72185600001518660c001518760200151886040015189606001518c8c604051612c5697969594939291906158b2565b60405180910390a1612c7085608001518660a0015161434e565b506137eb565b8060020b846040015160020b1215612fb45760009550600094506000846040015190505b846020015160020b8160020b12612ed85760001515600f60008360020b60020b815260200190815260200160002060050160009054906101000a900460ff1615151415612ceb57612cea81614a2f565b5b612cf482612659565b8660e001876101000182815250828152505050612d10826137f8565b866101200187610140018281525082815250505060006ec097ce7bc90715b34b9f100000000060027f0000000000000000000000000000000000000000000000000000000000000000612d639190615d42565b8760600151612d729190615c73565b612d7c9190615c73565b90508087612d8a9190615c1d565b96506000600f60008460020b60020b81526020019081526020016000206004015414612e1f5785610100015181600f60008560020b60020b815260200190815260200160002060040154612dde9190615e60565b612de89190615c73565b600360008860c00151815260200190815260200160002060008460020b60020b815260200190815260200160002081905550612e57565b8560600151600360008860c00151815260200190815260200160002060008460020b60020b8152602001908152602001600020819055505b600360008760c00151815260200190815260200160002060008360020b60020b815260200190815260200160002054600f60008460020b60020b81526020019081526020016000206004016000828254612eb19190615c1d565b92505081905550612ec482600083614dc5565b508080612ed0906160c4565b915050612c9a565b508583612ee59190615c1d565b846080015110158015612f0757508482612eff9190615c1d565b8460a0015110155b612f46576040517f08c379a0000000000000000000000000000000000000000000000000000000008152600401612f3d90615a9b565b60405180910390fd5b7f25bb3662de914b1d79554ee15970aec0a6759bfd7e6b72f55e6d04e70bc3d72184600001518560c001518660200151876040015188606001518b8b604051612f9597969594939291906158b2565b60405180910390a1612faf84608001518560a0015161434e565b6137ea565b8360600151600e60009054906101000a900460020b8560400151612fd89190615eba565b60020b612fe59190615e60565b9550600094506000806000600184612ffd9190615ba6565b90505b866040015160020b8160020b136131dc5760001515600f60008360020b60020b815260200190815260200160002060050160009054906101000a900460ff16151514156130515761305081614a2f565b5b61305a84612659565b8860e001896101000182815250828152505050613076846137f8565b88610120018961014001828152508281525050506000600f60008360020b60020b81526020019081526020016000206004015414613120578660e001518760600151600f60008460020b60020b8152602001908152602001600020600401546130df9190615e60565b6130e99190615c73565b600360008960c00151815260200190815260200160002060008360020b60020b815260200190815260200160002081905550613158565b8660600151600360008960c00151815260200190815260200160002060008360020b60020b8152602001908152602001600020819055505b600360008860c00151815260200190815260200160002060008260020b60020b815260200190815260200160002054600f60008360020b60020b815260200190815260200160002060040160008282546131b29190615c1d565b925050819055506131c98188606001516000614dc5565b80806131d49061610d565b915050613000565b5060006001846131ec9190615eba565b90505b866020015160020b8160020b1261342a5760001515600f60008360020b60020b815260200190815260200160002060050160009054906101000a900460ff16151514156132405761323f81614a2f565b5b61324984612659565b8860e001896101000182815250828152505050613265846137f8565b88610120018961014001828152508281525050506ec097ce7bc90715b34b9f100000000060027f00000000000000000000000000000000000000000000000000000000000000006132b69190615d42565b88606001516132c59190615c73565b6132cf9190615c73565b915081886132dd9190615c1d565b97506000600f60008360020b60020b815260200190815260200160002060040154146133725786610100015182600f60008460020b60020b8152602001908152602001600020600401546133319190615e60565b61333b9190615c73565b600360008960c00151815260200190815260200160002060008360020b60020b8152602001908152602001600020819055506133aa565b8660600151600360008960c00151815260200190815260200160002060008360020b60020b8152602001908152602001600020819055505b600360008860c00151815260200190815260200160002060008260020b60020b815260200190815260200160002054600f60008360020b60020b815260200190815260200160002060040160008282546134049190615c1d565b9250508190555061341781600084614dc5565b8080613422906160c4565b9150506131ef565b5060001515600f60008560020b60020b815260200190815260200160002060050160009054906101000a900460ff161515141561346b5761346a83614a2f565b5b61347483612659565b8760e001886101000182815250828152505050613490836137f8565b87610120018861014001828152508281525050508760095487608001516134b79190615fc5565b6134c19190615fc5565b915086600a548760a001516134d69190615fc5565b6134e09190615fc5565b905060006135038760e001518861010001518961012001518a6101400151614e62565b9050600061353c848960e0015161351a9190615c1d565b848a610100015161352b9190615c1d565b8a61012001518b6101400151614e62565b90508760600151828461354f9190615e60565b8561355a9190615c1d565b101561356557600080fd5b876060015181846135769190615e60565b856135819190615c1d565b101561358c57600080fd5b838a6135989190615c1d565b995082896135a69190615c1d565b98506000600f60008760020b60020b8152602001908152602001600020600401541461366b57808861010001516135dd9190615e60565b8860e001516135ec9190615c1d565b81846135f89190615e60565b856136039190615c1d565b600f60008860020b60020b81526020019081526020016000206004015461362a9190615e60565b6136349190615c73565b600360008a60c00151815260200190815260200160002060008760020b60020b8152602001908152602001600020819055506136a3565b8760600151600360008a60c00151815260200190815260200160002060008760020b60020b8152602001908152602001600020819055505b600360008960c00151815260200190815260200160002060008660020b60020b815260200190815260200160002054600f60008760020b60020b815260200190815260200160002060040160008282546136fd9190615c1d565b9250508190555061370f858585614dc5565b898761371b9190615c1d565b88608001511015801561373d575088866137359190615c1d565b8860a0015110155b61377c576040517f08c379a000000000000000000000000000000000000000000000000000000000815260040161377390615a9b565b60405180910390fd5b7f25bb3662de914b1d79554ee15970aec0a6759bfd7e6b72f55e6d04e70bc3d72188600001518960c001518a602001518b604001518c606001518f8f6040516137cb97969594939291906158b2565b60405180910390a16137e588608001518960a0015161434e565b505050505b5b5050505094509492505050565b600080600f60008460020b60020b8152602001908152602001600020600201549150600f60008460020b60020b8152602001908152602001600020600301549050915091565b6000600e60009054906101000a900460020b60020b8560020b14613897576040517f08c379a000000000000000000000000000000000000000000000000000000000815260040161388e90615a3b565b60405180910390fd5b60006040518061010001604052808760020b81526020018673ffffffffffffffffffffffffffffffffffffffff1681526020018515158152602001848152602001600081526020016000815260200160008152602001600081525090506139018160000151612659565b826080018360a0018281525082815250505060008061391e6104ab565b9150915060008061393285600001516137f8565b91509150600061394c86608001518760a001518585614367565b90506000807f0000000000000000000000000000000000000000000000000000000000000000905060007f0000000000000000000000000000000000000000000000000000000000000000905060011515896040015115151480156139b957508860a00151896060015111155b806139e0575060001515896040015115151480156139df57508860800151896060015111155b5b613a1f576040517f08c379a0000000000000000000000000000000000000000000000000000000008152600401613a1690615b1b565b60405180910390fd5b886040015115613e7d57613a3c818a602001518b6060015161475d565b6000613a5d8a604001518b608001518c60a001518a8a8f606001518b614ec2565b905060007f00000000000000000000000000000000000000000000000000000000000000006ec097ce7bc90715b34b9f1000000000613a9c9190615fc5565b6ec097ce7bc90715b34b9f100000000083613ab79190615e60565b613ac19190615c73565b9b50818c613acf9190615fc5565b9450600560009054906101000a900460ff1615613b2a576ec097ce7bc90715b34b9f100000000060065486613b049190615e60565b613b0e9190615c73565b905080600b6000828254613b229190615c1d565b925050819055505b85613b64868e8e60800151613b3f9190615c1d565b613b499190615fc5565b8d606001518e60a00151613b5d9190615fc5565b8b8b614367565b1015613ba5576040517f08c379a0000000000000000000000000000000000000000000000000000000008152600401613b9c9061599b565b60405180910390fd5b613bc38b60000151828e613bb99190615fc5565b8d60600151614ff6565b600f60008c6000015160020b60020b8152602001908152602001600020600101548b60a001818152505060008b60a001511415613c8157600e600081819054906101000a900460020b80929190613c19906160c4565b91906101000a81548162ffffff021916908360020b62ffffff160217905550507f0cb0eccb1404285f7fa2b73b6919026e7c4c482800eda6a81129eb1a86b932d060018c60000151613c6b9190615ba6565b604051613c789190615957565b60405180910390a15b7f000000000000000000000000000000000000000000000000000000000000000073ffffffffffffffffffffffffffffffffffffffff166370a08231306040518263ffffffff1660e01b8152600401613cda91906157c8565b60206040518083038186803b158015613cf257600080fd5b505afa158015613d06573d6000803e3d6000fd5b505050506040513d601f19601f82011682018060405250810190613d2a9190615532565b8b60c00181815250507f000000000000000000000000000000000000000000000000000000000000000073ffffffffffffffffffffffffffffffffffffffff166370a08231306040518263ffffffff1660e01b8152600401613d8c91906157c8565b60206040518083038186803b158015613da457600080fd5b505afa158015613db8573d6000803e3d6000fd5b505050506040513d601f19601f82011682018060405250810190613ddc9190615532565b8b60e00181815250508b8a613df19190615c1d565b8b60c0015110158015613e1757508a6060015189613e0f9190615fc5565b8b60e0015110155b613e56576040517f08c379a0000000000000000000000000000000000000000000000000000000008152600401613e4d906159bb565b60405180910390fd5b613e7a8c8b613e659190615c1d565b8c606001518b613e759190615fc5565b61434e565b50505b600015158960400151151514156142e257613ea1828a602001518b6060015161475d565b6000613ec28a604001518b608001518c60a001518a8a8f606001518b614ec2565b905060007f00000000000000000000000000000000000000000000000000000000000000006ec097ce7bc90715b34b9f1000000000613f019190615fc5565b6ec097ce7bc90715b34b9f100000000083613f1c9190615e60565b613f269190615c73565b9b50818c613f349190615fc5565b9450600560009054906101000a900460ff1615613f8f576ec097ce7bc90715b34b9f100000000060065486613f699190615e60565b613f739190615c73565b905080600c6000828254613f879190615c1d565b925050819055505b85613fc98c606001518d60800151613fa79190615fc5565b878f8f60a00151613fb89190615c1d565b613fc29190615fc5565b8b8b614367565b101561400a576040517f08c379a00000000000000000000000000000000000000000000000000000000081526004016140019061599b565b60405180910390fd5b6140288b600001518c60600151838f6140239190615fc5565b615093565b600f60008c6000015160020b60020b8152602001908152602001600020600001548b608001818152505060008b6080015114156140e657600e600081819054906101000a900460020b8092919061407e9061610d565b91906101000a81548162ffffff021916908360020b62ffffff160217905550507f0cb0eccb1404285f7fa2b73b6919026e7c4c482800eda6a81129eb1a86b932d060018c600001516140d09190615eba565b6040516140dd9190615957565b60405180910390a15b7f000000000000000000000000000000000000000000000000000000000000000073ffffffffffffffffffffffffffffffffffffffff166370a08231306040518263ffffffff1660e01b815260040161413f91906157c8565b60206040518083038186803b15801561415757600080fd5b505afa15801561416b573d6000803e3d6000fd5b505050506040513d601f19601f8201168201806040525081019061418f9190615532565b8b60c00181815250507f000000000000000000000000000000000000000000000000000000000000000073ffffffffffffffffffffffffffffffffffffffff166370a08231306040518263ffffffff1660e01b81526004016141f191906157c8565b60206040518083038186803b15801561420957600080fd5b505afa15801561421d573d6000803e3d6000fd5b505050506040513d601f19601f820116820180604052508101906142419190615532565b8b60e00181815250508a606001518a61425a9190615fc5565b8b60c001511015801561427c57508b896142749190615c1d565b8b60e0015110155b6142bb576040517f08c379a00000000000000000000000000000000000000000000000000000000081526004016142b2906159bb565b60405180910390fd5b6142df8b606001518b6142ce9190615fc5565b8d8b6142da9190615c1d565b61434e565b50505b7fb6c739c19455a7287b3f4490cd929131b681bf3594be4e802d2e5b67b2f46075338a600001518b604001518d8d606001518e6020015160405161432b96959493929190615828565b60405180910390a161433b615259565b9850505050505050505050949350505050565b8160098190555080600a8190555042600d819055505050565b6000806ec097ce7bc90715b34b9f100000000090506000670de0b6b3a76400009050600085876143979190615cf7565b85848a6143a49190615e60565b6143ae9190615c73565b6143b89190615c1d565b90508483876143c79190615e60565b6143d19190615c73565b836143dc9190615fc5565b60026143e89190615e60565b61444d888a8589888c6143fb9190615e60565b6144059190615c73565b886144109190615fc5565b600461441c9190615e60565b6144269190615e60565b6144309190615e60565b61443a9190615e60565b60026144469190615c1d565b8318615130565b826144589190615c1d565b6144629190615c73565b9350505050949350505050565b600080670de0b6b3a76400009050881561451a578081856144909190615e60565b848861449c9190615e60565b838b6144a89190615e60565b6144b29190615c1d565b6144bc9190615c1d565b868384876144ca9190615e60565b6144d49190615e60565b6144de9190615c73565b838a6144ea9190615e60565b6144f49190615c1d565b866144ff9190615e60565b6145099190615c73565b6145139190615c73565b91506145ad565b8081856145279190615e60565b868384876145359190615e60565b61453f9190615e60565b6145499190615c73565b838a6145559190615e60565b61455f9190615c1d565b6145699190615c1d565b87856145759190615c73565b838b6145819190615e60565b61458b9190615c1d565b866145969190615e60565b6145a09190615c73565b6145aa9190615c73565b91505b50979650505050505050565b60008073ffffffffffffffffffffffffffffffffffffffff1660008084815260200190815260200160002060009054906101000a900473ffffffffffffffffffffffffffffffffffffffff1673ffffffffffffffffffffffffffffffffffffffff1614159050919050565b600061462f82611683565b905060018060008373ffffffffffffffffffffffffffffffffffffffff1673ffffffffffffffffffffffffffffffffffffffff16815260200190815260200160002060008282546146809190615fc5565b9250508190555060008083815260200190815260200160002060006101000a81549073ffffffffffffffffffffffffffffffffffffffff02191690555050565b81600f60008560020b60020b815260200190815260200160002060000160008282546146ec9190615fc5565b9250508190555080600f60008560020b60020b8152602001908152602001600020600101600082825461471f9190615fc5565b9250508190555081600760008282546147389190615fc5565b9250508190555080600860008282546147519190615fc5565b92505081905550505050565b6000808473ffffffffffffffffffffffffffffffffffffffff166040518060400160405280601981526020017f7472616e7366657228616464726573732c75696e7432353629000000000000008152508051906020012085856040516024016147c7929190615889565b604051602081830303815290604052907bffffffffffffffffffffffffffffffffffffffffffffffffffffffff19166020820180517bffffffffffffffffffffffffffffffffffffffffffffffffffffffff838183161783525050505060405161483191906157b1565b6000604051808303816000865af19150503d806000811461486e576040519150601f19603f3d011682016040523d82523d6000602084013e614873565b606091505b50915091508180156148a157506000815114806148a057508080602001905181019061489f91906154ab565b5b5b6148e0576040517f08c379a00000000000000000000000000000000000000000000000000000000081526004016148d790615afb565b60405180910390fd5b5050505050565b60008073ffffffffffffffffffffffffffffffffffffffff168273ffffffffffffffffffffffffffffffffffffffff161415614958576040517f08c379a000000000000000000000000000000000000000000000000000000000815260040161494f90615a5b565b60405180910390fd5b60018060008473ffffffffffffffffffffffffffffffffffffffff1673ffffffffffffffffffffffffffffffffffffffff16815260200190815260200160002060008282546149a79190615c1d565b9250508190555081600080600454815260200190815260200160002060006101000a81548173ffffffffffffffffffffffffffffffffffffffff021916908373ffffffffffffffffffffffffffffffffffffffff16021790555060046000815480929190614a1490616139565b91905055506001600454614a289190615fc5565b9050919050565b60001515600f60008360020b60020b815260200190815260200160002060050160009054906101000a900460ff16151514614a9f576040517f08c379a0000000000000000000000000000000000000000000000000000000008152600401614a9690615a7b565b60405180910390fd5b614aa76152b9565b600081600001818152505060008160200181815250506000816080018181525050600e60039054906101000a900460020b60020b8260020b1315614bf35781600e60036101000a81548162ffffff021916908360020b62ffffff16021790555060001515600f6000600185614b1c9190615eba565b60020b60020b815260200190815260200160002060050160009054906101000a900460ff1615151415614b5f57614b5e600183614b599190615eba565b614a2f565b5b600f6000600184614b709190615eba565b60020b60020b815260200190815260200160002060030154816040018181525050670de0b6b3a76400007f00000000000000000000000000000000000000000000000000000000000000008260400151614bca9190615e60565b614bd49190615c73565b81606001818152505060018160a0019015159081151581525050614d1b565b600e60069054906101000a900460020b60020b8260020b1215614d1a5781600e60066101000a81548162ffffff021916908360020b62ffffff16021790555060001515600f6000600185614c479190615ba6565b60020b60020b815260200190815260200160002060050160009054906101000a900460ff1615151415614c8a57614c89600183614c849190615ba6565b614a2f565b5b600f6000600184614c9b9190615ba6565b60020b60020b8152602001908152602001600020600201548160600181815250507f0000000000000000000000000000000000000000000000000000000000000000670de0b6b3a76400008260600151614cf59190615e60565b614cff9190615c73565b81604001818152505060018160a00190151590811515815250505b5b80600f60008460020b60020b8152602001908152602001600020600082015181600001556020820151816001015560408201518160020155606082015181600301556080820151816004015560a08201518160050160006101000a81548160ff0219169083151502179055509050507fd8cd19735b99f42e139b3d9b010361dde34e228ac8fe99fa2066e15aa625028782604051614db99190615957565b60405180910390a15050565b81600f60008560020b60020b81526020019081526020016000206000016000828254614df19190615c1d565b9250508190555080600f60008560020b60020b81526020019081526020016000206001016000828254614e249190615c1d565b925050819055508160076000828254614e3d9190615c1d565b925050819055508060086000828254614e569190615c1d565b92505081905550505050565b600080614e7186868686614367565b90508460028483614e829190615c73565b88614e8d9190615c1d565b614e979190615d42565b8283614ea39190615e60565b614ead9190615c73565b614eb79190615e60565b915050949350505050565b600080670de0b6b3a764000090508815614f5757808185614ee39190615e60565b868386614ef09190615e60565b614efa9190615c73565b89614f059190615c1d565b614f0f9190615fc5565b8785614f1b9190615e60565b838b614f279190615e60565b614f319190615c1d565b86614f3c9190615e60565b614f469190615c73565b614f509190615c73565b9150614fea565b808185614f649190615e60565b8488614f709190615e60565b838b614f7c9190615e60565b614f869190615c1d565b614f909190615fc5565b86838487614f9e9190615e60565b614fa89190615e60565b614fb29190615c73565b838a614fbe9190615e60565b614fc89190615c1d565b86614fd39190615e60565b614fdd9190615c73565b614fe79190615c73565b91505b50979650505050505050565b81600f60008560020b60020b815260200190815260200160002060000160008282546150229190615c1d565b9250508190555080600f60008560020b60020b815260200190815260200160002060010160008282546150559190615fc5565b92505081905550816007600082825461506e9190615c1d565b9250508190555080600860008282546150879190615fc5565b92505081905550505050565b81600f60008560020b60020b815260200190815260200160002060000160008282546150bf9190615fc5565b9250508190555080600f60008560020b60020b815260200190815260200160002060010160008282546150f29190615c1d565b92505081905550816007600082825461510b9190615fc5565b9250508190555080600860008282546151249190615c1d565b92505081905550505050565b60006003821115615197578190506000600160028461514f9190615c73565b6151599190615c1d565b90505b818110156151915780915060028182856151769190615c73565b6151809190615c1d565b61518a9190615c73565b905061515c565b506151a5565b600082146151a457600190505b5b919050565b604051806101a00160405280600073ffffffffffffffffffffffffffffffffffffffff16815260200160001515815260200160008152602001600081526020016000815260200160008152602001600081526020016000815260200160008152602001600081526020016000815260200160008152602001600081525090565b6040518060a0016040528060008152602001600081526020016000815260200160008152602001600081525090565b604051806101000160405280600060020b8152602001600073ffffffffffffffffffffffffffffffffffffffff16815260200160001515815260200160008152602001600081526020016000815260200160008152602001600081525090565b6040518060c0016040528060008152602001600081526020016000815260200160008152602001600081526020016000151581525090565b600081359050615300816165a6565b92915050565b600081359050615315816165bd565b92915050565b60008151905061532a816165bd565b92915050565b60008135905061533f816165d4565b92915050565b600081359050615354816165eb565b92915050565b60008135905061536981616602565b92915050565b60008151905061537e81616602565b92915050565b60006020828403121561539a57615399616229565b5b60006153a8848285016152f1565b91505092915050565b6000806000606084860312156153ca576153c9616229565b5b60006153d8868287016152f1565b93505060206153e986828701615306565b92505060406153fa86828701615345565b9150509250925092565b6000806000806080858703121561541e5761541d616229565b5b600061542c878288016152f1565b945050602061543d87828801615330565b935050604061544e87828801615330565b925050606061545f8782880161535a565b91505092959194509250565b6000806040838503121561548257615481616229565b5b6000615490858286016152f1565b92505060206154a18582860161535a565b9150509250929050565b6000602082840312156154c1576154c0616229565b5b60006154cf8482850161531b565b91505092915050565b6000602082840312156154ee576154ed616229565b5b60006154fc84828501615330565b91505092915050565b60006020828403121561551b5761551a616229565b5b60006155298482850161535a565b91505092915050565b60006020828403121561554857615547616229565b5b60006155568482850161536f565b91505092915050565b61556881615ff9565b82525050565b6155778161600b565b82525050565b61558681616017565b82525050565b600061559782615b7f565b6155a18185615b8a565b93506155b1818560208601616091565b80840191505092915050565b6155c681616043565b82525050565b6155d581616050565b82525050565b60006155e8602783615b95565b91506155f38261623b565b604082019050919050565b600061560b601d83615b95565b91506156168261628a565b602082019050919050565b600061562e603483615b95565b9150615639826162b3565b604082019050919050565b6000615651602a83615b95565b915061565c82616302565b604082019050919050565b6000615674602983615b95565b915061567f82616351565b604082019050919050565b6000615697601983615b95565b91506156a2826163a0565b602082019050919050565b60006156ba602083615b95565b91506156c5826163c9565b602082019050919050565b60006156dd603183615b95565b91506156e8826163f2565b604082019050919050565b6000615700602183615b95565b915061570b82616441565b604082019050919050565b6000615723602683615b95565b915061572e82616490565b604082019050919050565b6000615746602c83615b95565b9150615751826164df565b604082019050919050565b6000615769601d83615b95565b91506157748261652e565b602082019050919050565b600061578c602d83615b95565b915061579782616557565b604082019050919050565b6157ab8161607a565b82525050565b60006157bd828461558c565b915081905092915050565b60006020820190506157dd600083018461555f565b92915050565b60006080820190506157f8600083018761555f565b615805602083018661556e565b61581260408301856155cc565b61581f606083018461555f565b95945050505050565b600060c08201905061583d600083018961555f565b61584a60208301886155bd565b615857604083018761556e565b61586460608301866157a2565b61587160808301856157a2565b61587e60a083018461555f565b979650505050505050565b600060408201905061589e600083018561555f565b6158ab60208301846157a2565b9392505050565b600060e0820190506158c7600083018a61555f565b6158d460208301896157a2565b6158e160408301886155bd565b6158ee60608301876155bd565b6158fb60808301866157a2565b61590860a08301856157a2565b61591560c08301846157a2565b98975050505050505050565b6000602082019050615936600083018461556e565b92915050565b6000602082019050615951600083018461557d565b92915050565b600060208201905061596c60008301846155bd565b92915050565b600060408201905061598760008301856155cc565b61599460208301846155cc565b9392505050565b600060208201905081810360008301526159b4816155db565b9050919050565b600060208201905081810360008301526159d4816155fe565b9050919050565b600060208201905081810360008301526159f481615621565b9050919050565b60006020820190508181036000830152615a1481615644565b9050919050565b60006020820190508181036000830152615a3481615667565b9050919050565b60006020820190508181036000830152615a548161568a565b9050919050565b60006020820190508181036000830152615a74816156ad565b9050919050565b60006020820190508181036000830152615a94816156d0565b9050919050565b60006020820190508181036000830152615ab4816156f3565b9050919050565b60006020820190508181036000830152615ad481615716565b9050919050565b60006020820190508181036000830152615af481615739565b9050919050565b60006020820190508181036000830152615b148161575c565b9050919050565b60006020820190508181036000830152615b348161577f565b9050919050565b6000602082019050615b5060008301846157a2565b92915050565b6000604082019050615b6b60008301856157a2565b615b7860208301846157a2565b9392505050565b600081519050919050565b600081905092915050565b600082825260208201905092915050565b6000615bb182616043565b9150615bbc83616043565b925081627fffff03831360008312151615615bda57615bd96161cb565b5b817fffffffffffffffffffffffffffffffffffffffffffffffffffffffffff800000038312600083121615615c1257615c116161cb565b5b828201905092915050565b6000615c288261607a565b9150615c338361607a565b9250827fffffffffffffffffffffffffffffffffffffffffffffffffffffffffffffffff03821115615c6857615c676161cb565b5b828201905092915050565b6000615c7e8261607a565b9150615c898361607a565b925082615c9957615c986161fa565b5b828204905092915050565b6000808291508390505b6001851115615cee57808604811115615cca57615cc96161cb565b5b6001851615615cd95780820291505b8081029050615ce78561622e565b9450615cae565b94509492505050565b6000615d028261607a565b9150615d0d8361607a565b9250615d3a7fffffffffffffffffffffffffffffffffffffffffffffffffffffffffffffffff8484615d8d565b905092915050565b6000615d4d8261607a565b9150615d5883616084565b9250615d857fffffffffffffffffffffffffffffffffffffffffffffffffffffffffffffffff8484615d8d565b905092915050565b600082615d9d5760019050615e59565b81615dab5760009050615e59565b8160018114615dc15760028114615dcb57615dfa565b6001915050615e59565b60ff841115615ddd57615ddc6161cb565b5b8360020a915084821115615df457615df36161cb565b5b50615e59565b5060208310610133831016604e8410600b8410161715615e2f5782820a905083811115615e2a57615e296161cb565b5b615e59565b615e3c8484846001615ca4565b92509050818404811115615e5357615e526161cb565b5b81810290505b9392505050565b6000615e6b8261607a565b9150615e768361607a565b9250817fffffffffffffffffffffffffffffffffffffffffffffffffffffffffffffffff0483118215151615615eaf57615eae6161cb565b5b828202905092915050565b6000615ec582616043565b9150615ed083616043565b9250827fffffffffffffffffffffffffffffffffffffffffffffffffffffffffff80000001821260008412151615615f0b57615f0a6161cb565b5b82627fffff018213600084121615615f2657615f256161cb565b5b828203905092915050565b6000615f3c82616050565b9150615f4783616050565b9250827f800000000000000000000000000000000000000000000000000000000000000001821260008412151615615f8257615f816161cb565b5b827f7fffffffffffffffffffffffffffffffffffffffffffffffffffffffffffffff018213600084121615615fba57615fb96161cb565b5b828203905092915050565b6000615fd08261607a565b9150615fdb8361607a565b925082821015615fee57615fed6161cb565b5b828203905092915050565b60006160048261605a565b9050919050565b60008115159050919050565b60007fffffffff0000000000000000000000000000000000000000000000000000000082169050919050565b60008160020b9050919050565b6000819050919050565b600073ffffffffffffffffffffffffffffffffffffffff82169050919050565b6000819050919050565b600060ff82169050919050565b60005b838110156160af578082015181840152602081019050616094565b838111156160be576000848401525b50505050565b60006160cf82616043565b91507fffffffffffffffffffffffffffffffffffffffffffffffffffffffffff800000821415616102576161016161cb565b5b600182039050919050565b600061611882616043565b9150627fffff82141561612e5761612d6161cb565b5b600182019050919050565b60006161448261607a565b91507fffffffffffffffffffffffffffffffffffffffffffffffffffffffffffffffff821415616177576161766161cb565b5b600182019050919050565b600061618d82616050565b91507f80000000000000000000000000000000000000000000000000000000000000008214156161c0576161bf6161cb565b5b816000039050919050565b7f4e487b7100000000000000000000000000000000000000000000000000000000600052601160045260246000fd5b7f4e487b7100000000000000000000000000000000000000000000000000000000600052601260045260246000fd5b600080fd5b60008160011c9050919050565b7f4465736972655377617056303a204c49515f434f454646494349454e545f495360008201527f5f544f5f4c4f5700000000000000000000000000000000000000000000000000602082015250565b7f4465736972655377617056303a20544f5f4c4f575f42414c414e434553000000600082015250565b7f4465736972655377617056303a20535741505f4841535f4641494c45442e5f4260008201527f414c414e4345535f4152455f544f5f534d414c4c000000000000000000000000602082015250565b7f4552433732313a2062616c616e636520717565727920666f7220746865207a6560008201527f726f206164647265737300000000000000000000000000000000000000000000602082015250565b7f4552433732313a206f776e657220717565727920666f72206e6f6e657869737460008201527f656e7420746f6b656e0000000000000000000000000000000000000000000000602082015250565b7f4465736972655377617056303a2057524f4e475f494e44455800000000000000600082015250565b7f4552433732313a206d696e7420746f20746865207a65726f2061646472657373600082015250565b7f4465736972655377617056303a20544849535f504f534954494f4e5f5741535f60008201527f414c52454144595f414354495641544544000000000000000000000000000000602082015250565b7f4465736972655377617056303a2042414c414e4345535f4152455f544f5f4c4f60008201527f5700000000000000000000000000000000000000000000000000000000000000602082015250565b7f4465736972655377617056303a205448455f4552433732315f444f5f4e4f545f60008201527f4558495354530000000000000000000000000000000000000000000000000000602082015250565b7f4465736972655377617056303a205448455f54582e4f524947494e5f49535f4e60008201527f4f545f5448455f4f574e45520000000000000000000000000000000000000000602082015250565b7f4465736972655377617056303a205452414e534645525f4641494c4544000000600082015250565b7f4465736972655377617056303a20494e53554646494349454e545f504f53495460008201527f494f4e5f4c495155494449545900000000000000000000000000000000000000602082015250565b6165af81615ff9565b81146165ba57600080fd5b50565b6165c68161600b565b81146165d157600080fd5b50565b6165dd81616043565b81146165e857600080fd5b50565b6165f481616050565b81146165ff57600080fd5b50565b61660b8161607a565b811461661657600080fd5b5056fea2646970667358221220ca0fe18d75f51681763fe213c164d75dd60491a42284376a9b74a74897341b6564736f6c63430008060033a264697066735822122000909aa676d02a42269e81d94702da9f63a04e81ee97c9ca0517d23990e61b8864736f6c63430008060033",
  "immutableReferences": {},
  "source": "// SPDX-License-Identifier: UNLICENSED\npragma solidity ^0.8.0;\n\nimport\"./Pool.sol\";\n\ncontract Factory {\n    address public owner;\n\n    uint256[] public sqrtPositionMultiplier;\n    uint256[] public fee;\n    uint8 public poolTypeCount;\n    mapping(address => mapping(address => mapping(uint8 => address))) public poolAddress;\n\n    event NewPoolType(uint8 poolTypeNumber, uint256 positionMultiplier, uint256 fee);\n    event PoolCreated(address token0, address token1, uint8 poolType, address pool);\n    event OwnerChanged(address oldOwner, address newOwner);\n\n    function addPoolType(uint256 _sqrtPositionMultiplier, uint256 _fee) public{\n        require(msg.sender == owner);\n        sqrtPositionMultiplier[poolTypeCount] = _sqrtPositionMultiplier;\n        fee[poolTypeCount] = _fee;\n        emit NewPoolType (poolTypeCount, _sqrtPositionMultiplier, _fee);\n        poolTypeCount++;\n    }\n  \n    constructor(){\n        owner = msg.sender;\n        emit OwnerChanged(address(0), msg.sender);\n\n        poolTypeCount = 0;\n        addPoolType(1.004987562*10**18, 0.3*10**18);\n    }\n\n    function createPool(address tokenA, address tokenB, uint8 poolType, uint256 startingSqrtBottomPrice)\n    public{\n        require(msg.sender == owner, \"DesireFactory: You are not the owner of factory\");\n        require(tokenA != tokenB);\n        (address token0, address token1) = tokenA < tokenB ? (tokenA, tokenB) : (tokenB, tokenA);\n        require(token0 != address(0) && token1 != address(0));\n        require(poolAddress[token0][token1][poolType] == address(0));\n        address pool = address(new Pool(address(this), token0, token1,\n\t\t    sqrtPositionMultiplier[poolType], fee[poolType], startingSqrtBottomPrice));\n        poolAddress[token0][token1][poolType] = pool;\n        poolAddress[token1][token0][poolType] = pool;\n        emit PoolCreated(token0, token1, poolType, pool);\n    }\n\n    function setOwner(address _owner) external {\n        require(msg.sender == owner);\n        emit OwnerChanged(owner, _owner);\n        owner = _owner;\n    }\n}\n",
  "sourcePath": "/home/konrad/Code/DesireProject/contracts/Factory.sol",
  "compiler": {
    "name": "solc",
    "version": "0.8.6+commit.11564f7e.Emscripten.clang"
  },
  "schemaVersion": "3.4.2",
  "updatedAt": "2021-08-08T20:20:38.124Z",
  "devdoc": {
    "kind": "dev",
    "methods": {},
    "version": 1
  },
  "userdoc": {
    "kind": "user",
    "methods": {},
    "version": 1
  }
}