{
  "contractName": "PoolHelper",
  "abi": [
    {
      "inputs": [],
      "name": "SELECTOR",
      "outputs": [
        {
          "internalType": "bytes4",
          "name": "",
          "type": "bytes4"
        }
      ],
      "stateMutability": "view",
      "type": "function"
    }
  ],
  "bytecode": "0x608060405234801561001057600080fd5b5061010f806100206000396000f3fe6080604052348015600f57600080fd5b506004361060285760003560e01c8063053c238d14602d575b600080fd5b60336047565b604051603e91906094565b60405180910390f35b6040518060400160405280601981526020017f7472616e7366657228616464726573732c75696e7432353629000000000000008152508051906020012081565b608e8160ad565b82525050565b600060208201905060a760008301846087565b92915050565b60007fffffffff000000000000000000000000000000000000000000000000000000008216905091905056fea2646970667358221220427a2a72923b679b54c6e20a166f96027f09c0870d05067f95f48fcac225580a64736f6c63430008060033",
  "immutableReferences": {},
  "source": "// SPDX-License-Identifier: UNLICENSED\npragma solidity ^0.8.0;\n\ncontract PoolHelper {\n\n    function sqrt(uint y) internal pure returns (uint z) {\n        if (y > 3) {\n            z = y;\n            uint x = y / 2 + 1;\n            while (x < z) {\n                z = x;\n                x = (y / x + x) / 2;\n                }\n        } else if (y != 0) {\n        z = 1;\n        }\n    }\n\n    function abs(int24 x) internal pure returns (int24) {\n    return x >= 0 ? x : -x;\n    }\n\n    bytes4 public constant SELECTOR = bytes4(keccak256(bytes('transfer(address,uint256)')));\n\n    function _safeTransfer( address token, address to, uint value) internal {\n        (bool success, bytes memory data) = token.call(abi.encodeWithSelector(SELECTOR, to, value));\n        require(success && (data.length == 0 || abi.decode(data, (bool))), 'DesireSwapV0: TRANSFER_FAILED');\n    }\n\n    // returns 10**18 * \"real LiqCoef\"\n    function LiqCoefficient (\n        uint256 x, uint256 y,\n        uint256 sqrt0, uint256 sqrt1)\n        internal pure\n        returns (uint256 liqCoefficient)\n    {\n        //price is 10**36*real_price\n        uint256 DD = 10**36;\n        uint256 D = 10**18;\n        uint256 b = x*(DD)/sqrt1 + y**sqrt0;\n        liqCoefficient = (b + sqrt(b^2 + 4*(DD-(sqrt0*DD)/sqrt1)*D*x*y))/(2*(DD-(sqrt0*DD)/sqrt1));\n    }\n\n    function _amountIn(\n        bool zeroForOne,\n        uint256 reserve0, uint256 reserve1,\n        uint256 sqrt0, uint256 sqrt1,\n        uint256 amountOut, uint256 L)\n        internal pure\n        returns(uint256 amountIn)\n    {\n        uint256 D = 10**18;\n        if( zeroForOne) {\n            amountIn = amountOut * ( reserve0*D + L*sqrt0)/(reserve1 + (L*D)/sqrt1 - amountOut*D)/D;\n        }\n        else{\n            amountIn = amountOut * ( reserve1*D + (L*D)*D/sqrt1)/(reserve0*D + sqrt0*L - amountOut*D)/D;\n        }\n    }\n\n    function _amountOut(\n        bool zeroForOne,\n        uint256 reserve0, uint256 reserve1,\n        uint256 sqrt0, uint256 sqrt1,\n        uint256 amountIn, uint256 L)\n        internal pure\n        returns(uint256 amountOut)\n    {\n        uint256 D = 10**18;\n        if (zeroForOne){\n            amountOut = amountIn * ( reserve1*D + (L*D)*D/sqrt1)/(reserve0*D + sqrt0*L + amountIn*D)/D;\n        }\n        else{\n            amountOut = amountIn * ( reserve0*D + L/sqrt0)/(reserve1*D + (L*D)*D/sqrt1 + amountIn*D)/D;\n        }\n    }\n\n    // returns amount of token0 in that would be in position if all token0 were taken out\n    function _inToken0Supply(\n        uint256 reserve0, uint256 reserve1,\n        uint256 sqrt0, uint256 sqrt1,\n        uint256 L)\n        internal pure\n        returns (uint256 inToken0Supply)\n    {\n        uint256 D = 10**18;\n        inToken0Supply = ((sqrt1*reserve0*reserve1*D)/L + reserve1*sqrt0*sqrt1)/D**2 + reserve0;\n    }\n\n    function _inToken0Supply(\n        uint256 reserve0, uint256 reserve1,\n        uint256 sqrt0, uint256 sqrt1)\n        internal pure\n        returns (uint256 inToken0Supply)\n    {\n        uint256 D = 10**18;\n        uint256 L = LiqCoefficient(reserve0, reserve1, sqrt0, sqrt1);\n        inToken0Supply = ((sqrt1*reserve0*reserve1*D)/L + reserve1*sqrt0*sqrt1)/D**2 + reserve0;\n    }\n    \n    // currentPrice *10**36\n    function _currentPrice(\n        uint256 reserve0, uint256 reserve1,\n        uint256 sqrt0, uint256 sqrt1)\n        internal pure\n        returns (uint256 currentPrice)\n    {\n        uint256 L = LiqCoefficient(reserve0, reserve1, sqrt0, sqrt1);\n        currentPrice = (L*L/(reserve0 + L/sqrt1)**2)*reserve1;\n    }\n    \n    function _inToken0Value(\n        uint256 reserve0, uint256 reserve1,\n        uint256 sqrt0, uint256 sqrt1)\n        internal pure\n        returns (uint256 inToken0Value)\n    {\n        uint256 L = LiqCoefficient(reserve0, reserve1, sqrt0, sqrt1);\n        inToken0Value = reserve0 + (L*L/(reserve0 + L/sqrt1)**2)*reserve1/10**36;\n    }\n\n\n    // returns amount of token1 in that would be in position if all token0 were taken out\n    function _inToken1Supply(\n        uint256 reserve0, uint256 reserve1,\n        uint256 sqrt0, uint256 sqrt1)\n        internal pure\n        returns (uint256 inToken1Supply)\n    {\n        uint256 D = 10**18;\n        uint256 L = LiqCoefficient(reserve0, reserve1, sqrt0, sqrt1);\n        inToken1Supply = (reserve0*reserve1*D**3/sqrt1/L + reserve0*D**2*sqrt0/sqrt1)/D**2 + reserve1;\n    }\n\n    function _inToken1Supply(\n        uint256 reserve0, uint256 reserve1,\n        uint256 sqrt0, uint256 sqrt1,\n        uint256 L)\n        internal pure\n        returns (uint256 inToken1Supply)\n    {\n        uint256 D = 10**18;\n        inToken1Supply = (reserve0*reserve1*D**3/sqrt1/L + reserve0*D**2*sqrt0/sqrt1)/D**2 + reserve1;\n    }\n}",
  "sourcePath": "/home/konrad/Code/DesireProject/contracts/PoolHelper.sol",
  "compiler": {
    "name": "solc",
    "version": "0.8.6+commit.11564f7e.Emscripten.clang"
  },
  "schemaVersion": "3.4.2",
  "updatedAt": "2021-08-07T12:38:25.609Z",
  "devdoc": {
    "kind": "dev",
    "methods": {},
    "version": 1
  },
  "userdoc": {
    "kind": "user",
    "methods": {},
    "version": 1
  }
}