{
  "contractName": "Ticket",
  "abi": [
    {
      "inputs": [],
      "stateMutability": "nonpayable",
      "type": "constructor"
    },
    {
      "inputs": [
        {
          "internalType": "address",
          "name": "owner",
          "type": "address"
        }
      ],
      "name": "numberOf",
      "outputs": [
        {
          "internalType": "uint256",
          "name": "",
          "type": "uint256"
        }
      ],
      "stateMutability": "view",
      "type": "function"
    },
    {
      "inputs": [
        {
          "internalType": "uint256",
          "name": "tokenId",
          "type": "uint256"
        }
      ],
      "name": "ownerOf",
      "outputs": [
        {
          "internalType": "address",
          "name": "",
          "type": "address"
        }
      ],
      "stateMutability": "view",
      "type": "function"
    }
  ],
  "bytecode": "0x608060405234801561001057600080fd5b5060006004819055506104b6806100286000396000f3fe608060405234801561001057600080fd5b50600436106100365760003560e01c80630f0ed9bd1461003b5780636352211e1461006b575b600080fd5b6100556004803603810190610050919061022e565b61009b565b6040516100629190610347565b60405180910390f35b6100856004803603810190610080919061025b565b610153565b60405161009291906102ec565b60405180910390f35b60008073ffffffffffffffffffffffffffffffffffffffff168273ffffffffffffffffffffffffffffffffffffffff16141561010c576040517f08c379a000000000000000000000000000000000000000000000000000000000815260040161010390610307565b60405180910390fd5b600160008373ffffffffffffffffffffffffffffffffffffffff1673ffffffffffffffffffffffffffffffffffffffff168152602001908152602001600020549050919050565b60008060008084815260200190815260200160002060009054906101000a900473ffffffffffffffffffffffffffffffffffffffff169050600073ffffffffffffffffffffffffffffffffffffffff168173ffffffffffffffffffffffffffffffffffffffff1614156101fb576040517f08c379a00000000000000000000000000000000000000000000000000000000081526004016101f290610327565b60405180910390fd5b80915050919050565b60008135905061021381610452565b92915050565b60008135905061022881610469565b92915050565b600060208284031215610244576102436103af565b5b600061025284828501610204565b91505092915050565b600060208284031215610271576102706103af565b5b600061027f84828501610219565b91505092915050565b61029181610373565b82525050565b60006102a4602a83610362565b91506102af826103b4565b604082019050919050565b60006102c7602983610362565b91506102d282610403565b604082019050919050565b6102e6816103a5565b82525050565b60006020820190506103016000830184610288565b92915050565b6000602082019050818103600083015261032081610297565b9050919050565b60006020820190508181036000830152610340816102ba565b9050919050565b600060208201905061035c60008301846102dd565b92915050565b600082825260208201905092915050565b600061037e82610385565b9050919050565b600073ffffffffffffffffffffffffffffffffffffffff82169050919050565b6000819050919050565b600080fd5b7f4552433732313a2062616c616e636520717565727920666f7220746865207a6560008201527f726f206164647265737300000000000000000000000000000000000000000000602082015250565b7f4552433732313a206f776e657220717565727920666f72206e6f6e657869737460008201527f656e7420746f6b656e0000000000000000000000000000000000000000000000602082015250565b61045b81610373565b811461046657600080fd5b50565b610472816103a5565b811461047d57600080fd5b5056fea264697066735822122063c23201be6ad583459f4500b67316ff6b85384b319dc190a6768dd28ee4f47064736f6c63430008060033",
  "immutableReferences": {},
  "source": "// SPDX-License-Identifier: UNLICENSED\n\npragma solidity ^0.8.0;\n\ncontract Ticket{\n\n    struct TicketData{\n            int24 lowestPositionIndex;\n            int24 highestPositionIndex;\n            uint256 positionValue;\n            //mapping (int24 => uint256) positionSupplyCoefficient;\n        }\n\n    // Mapping from token ID to owner address\n    mapping (uint256 => address) internal _owners;\n\n    // Mapping owner address to token count\n    mapping (address => uint256) internal _balances;\n\n    // Mapping from token ID to data\n    mapping (uint256 => TicketData) internal _ticketData;\n\n    // Mapping from token Id to positionSupplyCoefficient\n    mapping (uint256 => mapping(int24 => uint256)) _ticketSupplyData;\n\n    uint256 emissionCounter;\n\n    constructor(){\n        emissionCounter = 0;\n    }\n\n\n    function numberOf(address owner) public view virtual returns (uint256) {\n        require(owner != address(0), \"ERC721: balance query for the zero address\");\n        return _balances[owner];\n    }\n\n    function ownerOf(uint256 tokenId) public view virtual returns (address) {\n        address owner = _owners[tokenId];\n        require(owner != address(0), \"ERC721: owner query for nonexistent token\");\n        return owner;\n    }\n\n    function _exists(uint256 tokenId) internal view virtual returns (bool) {\n        return _owners[tokenId] != address(0);\n    }\n\n\n    function _mint(address to) internal virtual returns(uint256){\n        require(to != address(0), \"ERC721: mint to the zero address\");\n\n        _balances[to] += 1;\n        _owners[emissionCounter] = to;\n        emissionCounter++;\n        return (emissionCounter - 1);\n    }\n\n    function _burn(uint256 tokenId) internal virtual {\n        address owner = Ticket.ownerOf(tokenId);\n\n        _balances[owner] -= 1;\n        delete _owners[tokenId];\n\n    }\n}\n",
  "sourcePath": "/home/konrad/Code/DesireProject/contracts/Ticket.sol",
  "compiler": {
    "name": "solc",
    "version": "0.8.6+commit.11564f7e.Emscripten.clang"
  },
  "schemaVersion": "3.4.2",
  "updatedAt": "2021-08-07T12:38:25.622Z",
  "devdoc": {
    "kind": "dev",
    "methods": {},
    "version": 1
  },
  "userdoc": {
    "kind": "user",
    "methods": {},
    "version": 1
  }
}